:020000040000fa
:080000000002040000000000f2
:020000040000fa
:04000800fe020000f4
:020000040000fa
:04000c00fe020000f0
:020000040000fa
:04001000fe020000ec
:020000040000fa
:04001400fe020000e8
:020000040000fa
:04001800fe020000e4
:020000040000fa
:04001c00fe020000e0
:020000040000fa
:04002000fe020000dc
:020000040000fa
:04002400fe020000d8
:020000040000fa
:04002800fe020000d4
:020000040000fa
:04002c00fe020000d0
:020000040000fa
:04003000fe020000cc
:020000040000fa
:04003400fe020000c8
:020000040000fa
:04003800fe020000c4
:020000040000fa
:04003c00fe020000c0
:020000040000fa
:04004000fe020000bc
:020000040000fa
:04004400fe020000b8
:020000040000fa
:04004800fe020000b4
:020000040000fa
:04004c00fe020000b0
:020000040000fa
:04005000fe020000ac
:020000040000fa
:04005400fe020000a8
:020000040000fa
:04005800fe020000a4
:020000040000fa
:04005c00fe020000a0
:020000040000fa
:04006000fe0200009c
:020000040000fa
:04006400fe02000098
:020000040000fa
:04006800fe02000094
:020000040000fa
:04006c00fe02000090
:020000040000fa
:04007000fe0200008c
:020000040000fa
:04007400fe02000088
:020000040000fa
:04007800fe02000084
:020000040000fa
:04007c00fe02000080
:020000040000fa
:04008000fe0200007c
:020000040000fa
:04008400fe02000078
:020000040000fa
:04008800fe02000074
:020000040000fa
:04008c00fe02000070
:020000040000fa
:04009000fe0200006c
:020000040000fa
:04009400fe02000068
:020000040000fa
:04009800fe02000064
:020000040000fa
:04009c00fe02000060
:020000040000fa
:0400a000fe0200005c
:020000040000fa
:0400a400fe02000058
:020000040000fa
:0400a800fe02000054
:020000040000fa
:0400ac00fe02000050
:020000040000fa
:0400b000fe0200004c
:020000040000fa
:0400b400fe02000048
:020000040000fa
:0400b800fe02000044
:020000040000fa
:0400bc00fe02000040
:020000040000fa
:0400c000fe0200003c
:020000040000fa
:0400c400fe02000038
:020000040000fa
:0400c800fe02000034
:020000040000fa
:0400cc00fe02000030
:020000040000fa
:0400d000fe0200002c
:020000040000fa
:0400d400fe02000028
:020000040000fa
:0400d800fe02000024
:020000040000fa
:0400dc00fe02000020
:020000040000fa
:0400e000fe0200001c
:020000040000fa
:0400e400fe02000018
:020000040000fa
:0400e800fe02000014
:020000040000fa
:0400ec00fe02000010
:020000040000fa
:0400f000fe0200000c
:020000040000fa
:0400f400fe02000008
:020000040000fa
:0400f800fe02000004
:020000040000fa
:0400fc00fe02000000
:020000040000fa
:04010000fe020000fb
:020000040000fa
:04010400fe020000f7
:020000040000fa
:04010800fe020000f3
:020000040000fa
:04010c00fe020000ef
:020000040000fa
:04011000fe020000eb
:020000040000fa
:04011400fe020000e7
:020000040000fa
:04011800fe020000e3
:020000040000fa
:04011c00fe020000df
:020000040000fa
:04012000fe020000db
:020000040000fa
:04012400fe020000d7
:020000040000fa
:04012800fe020000d3
:020000040000fa
:04012c00fe020000cf
:020000040000fa
:04013000fe020000cb
:020000040000fa
:04013400fe020000c7
:020000040000fa
:04013800fe020000c3
:020000040000fa
:04013c00fe020000bf
:020000040000fa
:04014000fe020000bb
:020000040000fa
:04014400fe020000b7
:020000040000fa
:04014800fe020000b3
:020000040000fa
:04014c00fe020000af
:020000040000fa
:04015000fe020000ab
:020000040000fa
:04015400fe020000a7
:020000040000fa
:04015800fe020000a3
:020000040000fa
:04015c00fe0200009f
:020000040000fa
:04016000fe0200009b
:020000040000fa
:04016400fe02000097
:020000040000fa
:04016800fe02000093
:020000040000fa
:04016c00fe0200008f
:020000040000fa
:04017000fe0200008b
:020000040000fa
:04017400fe02000087
:020000040000fa
:04017800fe02000083
:020000040000fa
:04017c00fe0200007f
:020000040000fa
:04018000fe0200007b
:020000040000fa
:04018400fe02000077
:020000040000fa
:04018800fe02000073
:020000040000fa
:04018c00fe0200006f
:020000040000fa
:04019000fe0200006b
:020000040000fa
:04019400fe02000067
:020000040000fa
:04019800fe02000063
:020000040000fa
:04019c00fe0200005f
:020000040000fa
:0401a000fe0200005b
:020000040000fa
:0401a400fe02000057
:020000040000fa
:0401a800fe02000053
:020000040000fa
:0401ac00fe0200004f
:020000040000fa
:0401b000fe0200004b
:020000040000fa
:0401b400fe02000047
:020000040000fa
:0401b800fe02000043
:020000040000fa
:0401bc00fe0200003f
:020000040000fa
:0401c000fe0200003b
:020000040000fa
:0401c400fe02000037
:020000040000fa
:0401c800fe02000033
:020000040000fa
:0401cc00fe0200002f
:020000040000fa
:0401d000fe0200002b
:020000040000fa
:0401d400fe02000027
:020000040000fa
:0401d800fe02000023
:020000040000fa
:0401dc00fe0200001f
:020000040000fa
:0401e000fe0200001b
:020000040000fa
:0401e400fe02000017
:020000040000fa
:0401e800fe02000013
:020000040000fa
:0401ec00fe0200000f
:020000040000fa
:0401f000fe0200000b
:020000040000fa
:0401f400fe02000007
:020000040000fa
:0401f800fe02000003
:020000040000fa
:0401fc00fe020000ff
:020000040000fa
:04020000fe020000fa
:020000040000fa
:04020400fe020000f6
:020000040000fa
:04020800fe020000f2
:020000040000fa
:04020c00fe020000ee
:020000040000fa
:04021000fe020000ea
:020000040000fa
:04021400fe020000e6
:020000040000fa
:04021800fe020000e2
:020000040000fa
:04021c00fe020000de
:020000040000fa
:04022000fe020000da
:020000040000fa
:04022400fe020000d6
:020000040000fa
:04022800fe020000d2
:020000040000fa
:04022c00fe020000ce
:020000040000fa
:04023000fe020000ca
:020000040000fa
:04023400fe020000c6
:020000040000fa
:04023800fe020000c2
:020000040000fa
:04023c00fe020000be
:020000040000fa
:04024000fe020000ba
:020000040000fa
:04024400fe020000b6
:020000040000fa
:04024800fe020000b2
:020000040000fa
:04024c00fe020000ae
:020000040000fa
:04025000fe020000aa
:020000040000fa
:04025400fe020000a6
:020000040000fa
:04025800fe020000a2
:020000040000fa
:04025c00fe0200009e
:020000040000fa
:04026000fe0200009a
:020000040000fa
:04026400fe02000096
:020000040000fa
:100400006f0521000eff27000e018800000000008c
:10041000000020000000e000020032000001200087
:100420002002880014000700760007000000e000aa
:1004300003003a00400d21000100200002003700b7
:100440000000200001002000810f70000100320038
:100450000f000700000020000000e0000200320052
:100460000000020000000000860d020000000000f5
:100470000040da000000fe00200120000000e00043
:1004800002003200002020009001880000000600d9
:10049000a1028800800478000000eb001f003700f4
:1004a000e284440054a0b4009905ba00e2844400f8
:1004b00054a0b4009906ba00e284440054a0b400e9
:1004c0000006eb00476fde00fd07b200ae018800ba
:1004d000636ce10003003a000ad801000000eb0061
:1004e0000e003700606ce10008003a00004deb00a0
:1004f0000a05e800020039003420ec000af0a000f0
:100500008b05e900f9ff3e00040037006168e10057
:10051000010032000086eb000b00070019c7ba008b
:100520000e04e0001905ba0003003a000a00e000da
:10053000dbff3a0000000600fe07b200ae028800b2
:100540008a047800f5ff37000cd0a300e20f4d00bd
:100550001c003b0089027800354dba000a05e8000e
:10056000020039003420ec000af0a0008b05e900fd
:100570000f003200254dba000a05e80002003900dc
:100580003420ec000af0a0008b05e90008003200de
:100590000c00e0000600320015cdba000a05e800a4
:1005a000020039003420ec000af0a0008b05e900bd
:1005b0008984e80054a0b4000b00e000e2ff3a0098
:1005c000000006009902ba00055d78008b05e9007d
:1005d000f7ff3200c82ade00055d78008b05e900d0
:1005e000f3ff32000c00e000f1ff320019ddba0029
:1005f000eeff3700b80c0400000000000040da00f5
:100600000000fe00000005000001be0022000700ff
:100610000470a70003f0a1006509b10016003200c4
:100620000d0035006828e10006003500f0ff2f00be
:10063000f1ff27000300e00013003b000100280049
:100640000000050000004000818048008502e900ac
:10065000fcff3a0008003700f88f420002003c001f
:100660008000eb00000005008100d1000080d30075
:100670008502e800fcff3a000300e00002003b00b6
:1006800060001000e0801800000006004f89de00c6
:10069000820178007c023700c70ade00f107b20051
:1006a000f50fb20008003200e1cf42000200320034
:1006b0000170a00024000500810f700001003200cd
:1006c0000408050044000500810f700002003a0094
:1006d000140005008502e9000000400081c04800c8
:1006e000fcff3b000170a00024000500889fbe00b5
:1006f0008a9fbe008c9fbe001b0020000202be002d
:100700000586680006002800060666004709de0028
:10071000f20fb200820032000243e8008000320093
:10072000c729de00f30fb2007d0032000343e8006a
:100730007b003200f107b2000170a000f507b200a3
:100740000570a000c708dd004903de008680700048
:100750004700dd00c72add004923de0086827200e3
:100760004722dd0003055100040350008583580033
:100770000300310000004000818048000a05e900c4
:100780008c1f78008a9fbe000400500085805800ae
:100790000402420085824a00000040008180480037
:1007a0000005eb000004be006033b8000406be0084
:1007b0000d48e10056003100110009004dccd80071
:1007c0000c01b8000d02b8008481410060824a002b
:1007d0008283530003045c0084845c0060055d0038
:1007e0000a00e00025003a00800578000d40e10095
:1007f00049003100880078000700780011000900e6
:100800004d88d8000c01b8000d02b8008481410069
:1008100060824a006003110083835b0004045c0073
:10082000e0845c000900e00021003a004f01be00b6
:100830000300e0002b003200e301600007067300b4
:100840008c81710001003200640070004200de0003
:100850004e5edd000c007000c258de0001e0a0001a
:1008600083010700cf017800818071004f06be0030
:100870004f05be004f04be00000006008c834300fd
:100880000d044c00e0844c0060054d000000e900c0
:100890000a00e000d4ff32008c8343000d044c00ba
:1008a000e0844c0060054d000000e900ceff3700f9
:1008b0000c0343008d834b0060044c00e0844c002b
:1008c0000000e9000900e000d8ff32000c034300fb
:1008d0008d834b0060044c00e0844c000000e90074
:1008e000d2ff37004200de004e5edd000c007000db
:1008f000c258de0001e0a000cf0178000300e00054
:10090000daff320060001000e0801800d7ff3700e7
:10091000f0ff2f00aaff3700f0ff2f00b9ff3700cc
:100920000404be002f010700870678000004fd00c4
:100930008104fd002b010700078366000678a300f1
:10094000030032000960a7000800be002c00370039
:100950000d78a300020032000800be002800370016
:100960000778a30026003a0001f0a10009f0a100d9
:100970000668a30003003200f1ff2700f0ff2f00fc
:10098000baff37000d68a300030032000800be0064
:100990008c807000b5ff37000768a30007003a009d
:1009a0000648a30003003200f1ff2700f0ff2f00ec
:1009b000aeff37000d48a300030032006000b8000e
:1009c0008c807000a9ff37000748a30004003200a4
:1009d00001f82700000020008c807000a3ff370082
:1009e000760107000004fd008104fd000205780087
:1009f000720107000802be008a01780059ff370023
:100a00000160a000120220003280880097ff3700aa
:100a10000100e000120032000500e000100032008a
:100a2000889fbe008a9fbe008c9fbe000006eb0020
:100a300001f8a3000300320060001000e0801800fd
:100a40000cf0a00005f8a3000300320060021200c1
:100a5000e0821a000cf0a2008005eb0041ff370095
:100a60006000b8000200050003836800070028004a
:100a700007036300470ade000480a100c71ade00f6
:100a80000580a100f70f20000720e100420032009e
:100a90000728e10040003200889fbe008a9fbe0008
:100aa0008c1f7800f107b200f307b2000400e000e9
:100ab000640032000170a0000500e0006800320010
:100ac0000370a00085054200eb07b1000204b800e6
:100ad0000302b8008484440060854a00020ab8001a
:100ae000848444000a854a00030ab80004054500ce
:100af000040033000804d0008984d2000a85d200a3
:100b00008b05e9006158e1003d003500021020002e
:100b1000090161000308200089816100f7072000b6
:100b20008783640008867300c84cde00c853dd006c
:100b3000878474004855de000300e00006003200a0
:100b400082037600040032008904e80060054d004d
:100b50000a88a3000c003a00f70f20000758e100b4
:100b600044003d000a70a100c75ddd000a857500e4
:100b70008a007300090078004f0678004f05be0018
:100b80004f04be00000006000a05d1008984d3008e
:100b90008b05e800f0ff3700881f78000604780016
:100ba00090000700070278000001fd008101fd00b0
:100bb0008c00070087027800850372000778a30085
:100bc000050032000001fd008101fd009f000700cb
:100bd0004f04780000000600850372000748a30058
:100be00003003200f0ff2f00f1ff2700f8ff37006d
:100bf0000000200001f8270088807000f4ff370013
:100c0000880178004848dd00808171004848de0096
:100c1000c850dd0001007000c850de0006047800f6
:100c20000b0178001600070088807000d2ff3700a3
:100c30000500e00005003200170020003a00070020
:100c40009dff370081037000f9ff3a0086007800ad
:100c50004f0678004f05be004f04be00000005009f
:100c600083037100f9ff3200270020002e000700e7
:100c700094ff370001f8270086807000f4ff3700ea
:100c80000100e00026003200610111007810e1004f
:100c900023003c006022b8007010e1000400350021
:100ca00080027800010078008000eb0070015100a4
:100cb0000200e0000900340070031100062add0084
:100cc000822ade008603dd00878272000200de00d9
:100cd000860bdd00070070008208de008481710051
:100ce000f4ff270004826200848171000400280060
:100cf000848262006102600005f0a6000000060028
:100d000004827100070032000000e800e080480023
:100d1000000006000002be006000b800efff3700d0
:100d20006000b80000000600889fbe000004eb00d1
:100d30006138e10016003a000100e00008003a00c6
:100d4000c800de004800dd00880020000100e0004f
:100d500003003a00c800de004800dd0068044400db
:100d60008184cf00e9845400060034008908dd0046
:100d7000f08314008703de00878070000900dd0027
:100d800009044400610214004f04be000000060084
:100d90000300e00008003a00c811de004811dd0041
:100da000880020000300e00003003a00c811de00c4
:100db0004811dd00680444008384cf00e9845400b6
:100dc000060034008919dd00f08314008713de006b
:100dd000878171000911dd0009044400e10214005b
:100de000e9ff37002700200001f0a70017002000ce
:100df000470bde00f60fb200040032000643e800a5
:100e00000a0032004702b300000006000103780028
:100e1000f607b2000603700002003a000703b300b1
:100e2000000006008702b3000000060001037800fe
:100e3000f607b20006037000020032000770a0003f
:100e4000000006000760a000000006000478a30070
:100e5000040032000578a300030032000168a300fb
:100e600001003a000200be000160a0000000060080
:100e700081017000270032008002eb0001f8a3001e
:100e80000300320060001000e08018001500200010
:100e9000f40720000202420020003400f703200083
:100ea000870360000604200000036300020820009e
:100eb000000161004700de00c909dd00008071000b
:100ec000c708de000600e00008003200870371005a
:100ed000060032001000b0000180b0000188a300bd
:100ee00002003200c108de000402e800f107b2008f
:100ef000f30f20000320e10003003d004722dd0046
:100f0000810072002900370001f827000000eb0083
:100f1000260037006000b8000000060068021200da
:100f20007f20e100020034006000b8001f0037009d
:100f30006011b8007020e1000400350080017800e5
:100f4000010078008000eb00700252000400e00015
:100f500009003400f00312000719dd008419de00d7
:100f60000703dd00868171000400de00070bdd0051
:100f7000060070008408de00f7ff2700838363000b
:100f80008703710006002800030363000700320096
:100f90000700e00003003a00610160000281730075
:100fa000020032001000b0000180b0000500a60071
:100fb0000000060001f0a000000006004f0ade005d
:100fc0004709de00f107b200f20fb2000b00320059
:100fd000f207b1000170a000c708dd00c901de0002
:100fe000838070004700dd000400a60000000600ba
:100ff00060001000e080180000000600810f700003
:1010000001003a00000006008182cf000500e000e8
:1010100010003e008082cf00ee8242007028e10086
:101020000400390007003e00800078000000eb005b
:101030000e003700708312008600de000500dd0020
:101040000a003700708352008600dd000000eb00cc
:1010500006003700e28252008508dd00708312002e
:101060000603de00868070000500dd007507b00015
:101070000501ea000400a600000006006000100060
:10108000e080180000000600881f78000304780044
:101090000300e00007003d0060001000e080180041
:1010a00060011900e081190002003b0001f02d00f1
:1010b000030037000400070008f0a70001f0a000bb
:1010c0004f04780000000600889fbe008a9fbe0083
:1010d0000082700004027100048271002600320058
:1010e0000004be000200be006011b8006b092000c1
:1010f000950220000182cf000a0039000541b100ad
:101100000082cf00070039000541b1000982cf00fd
:10111000040039000541b1000882cf000100390008
:101120000541b10005425200120032000a003b00a6
:1011300082817100610164008100d1000080d300d0
:101140008984d3000884d3008b05e8000442e800ba
:10115000f7ff3a00070037000804440089844c0078
:1011600000004800818048008b05e9000442e90046
:10117000f9ff3a00030007004f05be004f04be0010
:101180000000060081002000618055000b003d003a
:101190000b00200061fe2f000100e1001d00340063
:1011a00082817100610164008904d1000884d30048
:1011b0000000e800faff3a007100200061006400be
:1011c0000300700002006000090032006104440066
:1011d000e0844c000988a500050032008b05e8007a
:1011e0006808e10002003a008904d1000884d300b5
:1011f000f20f20000258e10005003d00c75ddd0050
:10120000f907b20089807500080078000000060028
:101210000bf827008b0078000000050081017800a2
:101220000002780030417800b14f510002003a00ce
:101230000204e000f9ff3a009480fb001380fb00f9
:081240000080500000000600d0
:020000040000fa
:101248003030000000300000310000003032000073
:10125800003000003400000030350000003100008c
:041268003000000052
:020000040000fa
:10126c000800fa00889fbe002007980031079800fc
:10127c00be009000800c2000808f50009b003c0032
:10128c0000202a00a1442000008fbe002e009000f8
:10129c00e10f500023003a001e0078009e009000e1
:1012ac00e00f5000e08f580002003d00f00fb0003e
:1012bc000180b0004809dd004804de00080471001c
:1012cc00c88cde000800be00edfc07000004be0068
:1012dc003e009000cf80de00e9fc070002002000f9
:1012ec00a3472400fefc07000001be000800be005e
:1012fc00dafd0700c1fc0700000078001008880028
:10130c000421a9000021ef00210880000003200027
:10131c0001007000200888000068a90005e1a80001
:10132c00730037002e009000e20f500023003a00ab
:10133c001e0078009e009000e00f5000e08f5800d7
:10134c0002003d00f00fb0000180b000480add0043
:10135c004803de0006037200c88bde000600be00e8
:10136c00c7fc07000004be003e009000cf80de00ea
:10137c00c3fc070002002000a3472400d8fc070090
:10138c000001be000800be00b4fd07009bfc070076
:10139c0000007800600888001021a9000621ef00e9
:1013ac008108800000032000010070008008880084
:1013bc0000e8a90011e1a8004d0037002e009000b4
:1013cc00e30f500023003a001e0078009e009000ae
:1013dc00e00f5000e08f580002003d00f00fb0000d
:1013ec000180b0004809dd004802de0004027100f3
:1013fc00c88ade000400be00a1fc07000004be0089
:10140c003e009000cf80de009dfc07000200200013
:10141c00a3472400b2fc07000001be000800be0078
:10142c008efd070075fc070000007800700888002e
:10143c001221a9000a21ef0091088000000320006e
:10144c0001007000900888000108a90013e1a800b1
:10145c00270037002e009000e40f500024003a00c3
:10146c001e0078009e009000e00f5000e08f5800a6
:10147c0002003d00f00fb0000180b000480add0012
:10148c004801de0002017200c889de000200be00c5
:10149c007bfc07000004be003e009000cf80de0005
:1014ac0077fc070002002000a34724008cfc0700f7
:1014bc000001be000800be0068fd07004ffc0700dd
:1014cc0000007800d00888001e21a9001421ef002c
:1014dc00f10880000003200001007000f008880073
:1014ec000368a9001fe1a8000100370000000000fc
:1014fc004f04be000080fa00000006000200fa0053
:10150c00000f78001e007800e10f500012003a0026
:10151c0000408000680060000000e00007003a0016
:10152c000000000000408000680060000000e00047
:10153c00fcff32000000eb00500037000040800040
:10154c00680060000000e0004b0032000068a90059
:10155c0010002000490037001e007800e20f5000f8
:10156c0015003a0001408000000820000080600057
:10157c000000e00008003a0000000000014080007c
:10158c0000082000008060000000e000fbff32003b
:10159c000000eb00390037000140800000082000fb
:1015ac00008060000000e0003300320000e8a90079
:1015bc0010002000310037001e007800e30f5000af
:1015cc0015003a00014080000010200000806000ef
:1015dc000000e00008003a0000000000014080001c
:1015ec0000102000008060000000e000fbff3200d3
:1015fc000000eb00210037000140800000102000ab
:10160c00008060000000e0001b0032000108a9000f
:10161c0010002000190037001e007800e40f500065
:10162c0015003a001140800000802000008060000e
:10163c000000e00008003a000000000011408000ab
:10164c0000802000008060000000e000fbff320002
:10165c000000eb00090037001140800000802000e2
:10166c00008060000000e000030032000368a90065
:10167c001000200001003700000037000080fa0045
:10168c00000006000800fa00889fbe0020079800a2
:10169c003107980000202a00a1442000008fbe00d2
:1016ac002e009000e10f500023003a001e0078003d
:1016bc009e009000e00f5000e08f580002003d00ab
:1016cc00f00fb0000180b0004809dd004802de00d8
:1016dc0004027100c88ade000400be00e8fb0700ab
:1016ec000004be003e009000cf80de00e4fb07004b
:1016fc0002002000a3472400f9fb07000001be00f4
:10170c000800be00d5fc0700bcfb070000007800f9
:10171c00100888000421a9000021ef002108800096
:10172c000003200001007000200888000068a90058
:10173c0005e1a8002a0037002e009000e20f5000af
:10174c0027003a00be009000800c2000808f5000d3
:10175c00010034001061a8001e0078009e0090006b
:10176c00e00f5000e08f580002003d00f00fb00079
:10177c000180b000480add004801de000201720061
:10178c00c889de000200be00bdfb07000004be00dd
:10179c003e009000cf80de00b9fb07000200200065
:1017ac00a3472400cefb07000001be000800be00ca
:1017bc00aafc070091fb0700000078006008880075
:1017cc001021a9000621ef008108800000032000f1
:1017dc00010070008008880000e8a90011e1a80051
:1017ec002e009000e10f500007003a0000000000ae
:1017fc0000408000680060000000e000fcff320048
:10180c000068a9000a0037002e009000e20f50007b
:10181c0007003a0000000000014080000008200092
:10182c00008060000000e000fbff320000e8a9002f
:10183c004f04be000080fa00000006000200fa000f
:10184c00000321004b0207000000e0000200320000
:10185c000000eb00300037000000eb00000f7800b8
:10186c00090037002168a9009e0078008000210043
:10187c000080400080007800000321001e02070059
:10188c002168a8001e0fe8001e007800e10f500030
:10189c00f4ff340041922800800021005cfe070018
:1018ac000000e00019003200719228008000210035
:1018bc0057fe07000000e00014003200a19228003f
:1018cc008000210052fe07000000e0000f003200f3
:1018dc00d1922800800021004dfe07000000e0009e
:1018ec000a003200019328008000210048fe070006
:1018fc000000e00005003200319328008000210038
:10190c0043fe07000000e00002003a001000200037
:10191c00010037000000eb000080fa000000060018
:10192c000200fa00090037002168a9008e00780037
:10193c0000032100f00107002168a80081cb2000e2
:10194c001e4078000000fb00010001000003210094
:10195c00080207000000e000f3ff32000080fa00ec
:10196c00000006000200fa00004f780000808000a2
:10197c00e30f500029003200e30f500005003e0039
:10198c00e10f500013003200e10f50001a003e002e
:10199c0009003700e50f500032003200e50f50000f
:1019ac0027003900e60f500037003200e70f5000d7
:1019bc003f0032004a00370040c2b3009e4078001e
:1019cc0080cf500045003a001000200000808800b5
:1019dc004300370020c5b3009e40780080cf5000f4
:1019ec0003003a0020002000008088003c003700f3
:1019fc000030ef003a00370010c4b3009e4078006e
:101a0c0080cf500003003a00300020000080880096
:101a1c00330037000030ef003100370040c5b30011
:101a2c009e40780080cf500003003a004000200018
:101a3c00008088002a0037000030ef0028003700b3
:101a4c0050c4b3009e40780080cf500003003a0091
:101a5c005000200000808800210037000030ef008b
:101a6c001f003700c0c2b3009e40780080cf5000ea
:101a7c0003003a0060002000008088001800370046
:101a8c000030ef00160037006cff07002080880044
:101a9c00208080000000e000030032007000200075
:101aac00008088000e0037000030ef000c0037007b
:101abc00a0c2b3009e40780080cf500003003a00d3
:101acc001000200010808800010037000230ef0069
:101adc000030ef00000000000100370000000000a3
:101aec000080fa00000006000000fa0071002000df
:101afc0020002000e3fe07000080fa000000060032
:101b0c000600fa006e2eef00707380007072880071
:101b1c0070728000f0718800f07180007071880024
:101b2c0070718000f0708800f07080007070880018
:101b3c000000eb00000f78000000eb00100798008d
:101b4c00612ea900652ea90005010700a000210047
:101b5c002a0107000003210028010700a100200032
:101b6c0010002000befd070001003700000000003f
:101b7c00ddff07001e0fe800200320009e00780008
:101b8c00808f500011003a000000eb00000f78002d
:101b9c0021738000002020000080600000f0a7006e
:101bac000000ea000000e9004f00de000040780071
:101bbc000080fb00610060004900dd0021738000a3
:101bcc000190a1000100700020738800100020001b
:101bdc004afe0700200798002e0090000000e0004d
:101bec00e2ff32001e0090000000e8001007980091
:101bfc00dfff37000000fa0041e2a90042a2a80072
:101c0c004342a9004302a80040c2a900111280005f
:101c1c00c0ff2f000080600010128800111280009d
:101c2c0030fe2f00008060004001b30010128800cd
:101c3c00002ea800518ea90051aea900106ea9006b
:101c4c00108ea90030cea9004136800000f82f007c
:101c5c00008060001001b30040368800c134800061
:101c6c0000fc2f00008060005000b300c0348800de
:101c7c00b1348000f00f2c008080600000602000e8
:101c8c0001007000b0348800146ea800148ea800f7
:101c9c0034cea80041e2a8000080fa000000060043
:101cac000600fa002007980034cea90000000000be
:101cbc0000128000620060000000e000fcff3a00af
:101ccc002e0090000070a000401288000000000060
:101cdc0000128000610060000000e000fcff320098
:101cec0041128000010f78000000000000128000fb
:101cfc00620060000000e000fcff3a004822ef00a8
:101d0c000000000000128000610060000000e00094
:101d1c00fcff3200411280001107980034cea8005d
:101d2c000112800000042000008060000000e00030
:101d3c000100320040c2a9001e0090000080fa0091
:101d4c00000006000800fa00100798002107980010
:101d5c003207980034cea900000000000012800069
:101d6c00620060000000e000fcff3a009e00900062
:101d7c00000c2000010070004012880000000000e0
:101d8c0000128000610060000000e000fcff3200e7
:101d9c0041128000010f780000000000001280004a
:101dac00620060000000e000fcff3a004822ef00f7
:101dbc000000000000128000610060000000e000e4
:101dcc00fcff3200411280002e00900001087800c8
:101ddc000000000000128000620060000000e000c3
:101dec00fcff3a004822ef000000000000128000c7
:101dfc00610060000000e000fcff32004112800036
:101e0c003e0090000108780034cea800011280003a
:101e1c0000042000008060000000e000010032009f
:101e2c0040c2a9000080fa00000006000400fa007d
:101e3c0034cea900b0042000000f78000000000090
:101e4c0000128000620060000000e000fcff3a001d
:101e5c00f00720001e006000401288000000000007
:101e6c0000128000610060000000e000fcff320006
:101e7c004112800011079800000000000012800041
:101e8c00620060000000e000fcff3a00100020003f
:101e9c004012880000000000001280006100600009
:101eac000000e000fcff3200411280001107980096
:101ebc0034cea8004100200010002000f1fd0700e6
:101ecc0034cea900c0042000000f780000000000f0
:101edc0000128000620060000000e000fcff3a008d
:101eec00f00720001e006000401288000000000077
:101efc0000128000610060000000e000fcff320076
:101f0c0041128000110798000000000000128000b0
:101f1c00620060000000e000fcff3a004822ef0085
:101f2c000000000000128000610060000000e00072
:101f3c00fcff3200411280001107980034cea8003b
:101f4c000112800000042000008060000000e0000e
:101f5c000100320040c2a9000080fa000000060017
:101f6c000000fa00316ea800300ea9002136800066
:101f7c0000f82f0080806000b00420000100700089
:101f8c00203688000134800000fc2f0000806000a7
:101f9c000000a00000348800301d20004011880093
:101fac0021e2a8002342a8002202a8002168a80070
:101fbc000080fa00000006000200fa00004f7800d2
:101fcc000000000011118000002020000080600043
:101fdc000000e000fbff3a001e00fb00201188000f
:101fec000080fa00000006000000fa0030118000aa
:101ffc00004078000080fa00000006000200fa00a1
:10200c00000f78001e0078008000eb000110980093
:10201c001e0078008000eb00111098001e00780064
:10202c008000eb00211098000080fa0000000600f0
:10203c000400fa00000f7800214798001e00780079
:10204c00001090009e00780000804000ae40900090
:10205c00014878001e007800001090008000e80015
:10206c00f0012800008060000000e00004003d004a
:10207c000000e90001fe2f00008070000000e80065
:10208c00800078001e007800011098001e00780077
:10209c00a010900000022000808f50000f003a002a
:1020ac001e007800101090008000e800f00128005d
:1020bc00008060000000e00004003d000000e9002a
:1020cc0001fe2f00008070000000e8008000780006
:1020dc001e00780011109800050037001e007800d3
:1020ec00201090008000e8001e007800211098005d
:1020fc000080fa00000006000400fa00000f7800cf
:10210c00110798001e007800101090009e007800b7
:10211c0000804000904078001e009000014878003c
:10212c001e007800101090008000e800f0012800dc
:10213c00008060000000e00004003d000000e900a9
:10214c0001fe2f00008070000000e8008000780085
:10215c001e007800111098001e00780020109000ce
:10216c008000e9001e007800211098000080fa0021
:10217c00000006000200fa00000f78001e00780034
:10218c002010900000f0a7000000ea000000e90019
:0c219c004f00de000080fa00000006008a
:020000040000fa
:1021a800081000004e000000800000000010000031
:1021b8000600000080000000061000000200000079
:0821c80080000000000000008f
:00000001FF
